{
  "_format": "hh-sol-artifact-1",
  "contractName": "PriceFeed",
  "sourceName": "contracts/PriceFeed.sol",
  "abi": [
    {
      "inputs": [],
      "stateMutability": "nonpayable",
      "type": "constructor"
    },
    {
      "anonymous": false,
      "inputs": [
        {
          "indexed": false,
          "internalType": "uint256",
          "name": "feedid",
          "type": "uint256"
        },
        {
          "indexed": false,
          "internalType": "address",
          "name": "newAddress",
          "type": "address"
        },
        {
          "indexed": false,
          "internalType": "string",
          "name": "description",
          "type": "string"
        }
      ],
      "name": "FeedAddressUpdated",
      "type": "event"
    },
    {
      "anonymous": false,
      "inputs": [
        {
          "indexed": true,
          "internalType": "address",
          "name": "previousOwner",
          "type": "address"
        },
        {
          "indexed": true,
          "internalType": "address",
          "name": "newOwner",
          "type": "address"
        }
      ],
      "name": "OwnershipTransferred",
      "type": "event"
    },
    {
      "anonymous": false,
      "inputs": [
        {
          "indexed": false,
          "internalType": "string",
          "name": "description",
          "type": "string"
        },
        {
          "indexed": false,
          "internalType": "int256",
          "name": "price",
          "type": "int256"
        }
      ],
      "name": "PriceRequested",
      "type": "event"
    },
    {
      "inputs": [
        {
          "internalType": "uint256",
          "name": "",
          "type": "uint256"
        }
      ],
      "name": "feeds",
      "outputs": [
        {
          "internalType": "contract AggregatorV3Interface",
          "name": "aggregator",
          "type": "address"
        },
        {
          "internalType": "string",
          "name": "description",
          "type": "string"
        }
      ],
      "stateMutability": "view",
      "type": "function"
    },
    {
      "inputs": [
        {
          "internalType": "uint256",
          "name": "feedid",
          "type": "uint256"
        }
      ],
      "name": "getLastFetchedPrice",
      "outputs": [
        {
          "internalType": "int256",
          "name": "",
          "type": "int256"
        }
      ],
      "stateMutability": "view",
      "type": "function"
    },
    {
      "inputs": [
        {
          "internalType": "uint256",
          "name": "",
          "type": "uint256"
        }
      ],
      "name": "lastFetchedPrice",
      "outputs": [
        {
          "internalType": "int256",
          "name": "",
          "type": "int256"
        }
      ],
      "stateMutability": "view",
      "type": "function"
    },
    {
      "inputs": [],
      "name": "owner",
      "outputs": [
        {
          "internalType": "address",
          "name": "",
          "type": "address"
        }
      ],
      "stateMutability": "view",
      "type": "function"
    },
    {
      "inputs": [],
      "name": "renounceOwnership",
      "outputs": [],
      "stateMutability": "nonpayable",
      "type": "function"
    },
    {
      "inputs": [
        {
          "internalType": "address",
          "name": "newOwner",
          "type": "address"
        }
      ],
      "name": "transferOwnership",
      "outputs": [],
      "stateMutability": "nonpayable",
      "type": "function"
    },
    {
      "inputs": [
        {
          "internalType": "uint256",
          "name": "feedid",
          "type": "uint256"
        },
        {
          "internalType": "address",
          "name": "newAddress",
          "type": "address"
        }
      ],
      "name": "updateFeedAddress",
      "outputs": [],
      "stateMutability": "nonpayable",
      "type": "function"
    },
    {
      "inputs": [
        {
          "internalType": "uint256",
          "name": "feedid",
          "type": "uint256"
        }
      ],
      "name": "updatePrice",
      "outputs": [],
      "stateMutability": "nonpayable",
      "type": "function"
    }
  ],
  "bytecode": "0x60806040523480156200001157600080fd5b506200003262000026620003e060201b60201c565b620003e860201b60201c565b60405180604001604052807331cf013a08c6ac228c94551d535d5bafe19c602a73ffffffffffffffffffffffffffffffffffffffff1681526020016040518060400160405280600781526020017f4254432f55534400000000000000000000000000000000000000000000000000815250815250600160006001815260200190815260200160002060008201518160000160006101000a81548173ffffffffffffffffffffffffffffffffffffffff021916908373ffffffffffffffffffffffffffffffffffffffff160217905550602082015181600101908162000118919062000726565b5090505060405180604001604052807386d67c3d38d2bcee722e601025c25a575021c6ea73ffffffffffffffffffffffffffffffffffffffff1681526020016040518060400160405280600781526020017f4554482f55534400000000000000000000000000000000000000000000000000815250815250600160006002815260200190815260200160002060008201518160000160006101000a81548173ffffffffffffffffffffffffffffffffffffffff021916908373ffffffffffffffffffffffffffffffffffffffff160217905550602082015181600101908162000202919062000726565b5090505060405180604001604052807334c4c526902d88a3aa98db8a9b802603eb1e347073ffffffffffffffffffffffffffffffffffffffff1681526020016040518060400160405280600881526020017f4c494e4b2f555344000000000000000000000000000000000000000000000000815250815250600160006003815260200190815260200160002060008201518160000160006101000a81548173ffffffffffffffffffffffffffffffffffffffff021916908373ffffffffffffffffffffffffffffffffffffffff1602179055506020820151816001019081620002ec919062000726565b50905050604051806040016040528073378e78509a907b1ec5c24d9f0243bd39f7a7b00773ffffffffffffffffffffffffffffffffffffffff1681526020016040518060400160405280600781526020017f4254432f45544800000000000000000000000000000000000000000000000000815250815250600160006004815260200190815260200160002060008201518160000160006101000a81548173ffffffffffffffffffffffffffffffffffffffff021916908373ffffffffffffffffffffffffffffffffffffffff1602179055506020820151816001019081620003d6919062000726565b509050506200080d565b600033905090565b60008060009054906101000a900473ffffffffffffffffffffffffffffffffffffffff169050816000806101000a81548173ffffffffffffffffffffffffffffffffffffffff021916908373ffffffffffffffffffffffffffffffffffffffff1602179055508173ffffffffffffffffffffffffffffffffffffffff168173ffffffffffffffffffffffffffffffffffffffff167f8be0079c531659141344cd1fd0a4f28419497f9722a3daafe3b4186f6b6457e060405160405180910390a35050565b600081519050919050565b7f4e487b7100000000000000000000000000000000000000000000000000000000600052604160045260246000fd5b7f4e487b7100000000000000000000000000000000000000000000000000000000600052602260045260246000fd5b600060028204905060018216806200052e57607f821691505b602082108103620005445762000543620004e6565b5b50919050565b60008190508160005260206000209050919050565b60006020601f8301049050919050565b600082821b905092915050565b600060088302620005ae7fffffffffffffffffffffffffffffffffffffffffffffffffffffffffffffffff826200056f565b620005ba86836200056f565b95508019841693508086168417925050509392505050565b6000819050919050565b6000819050919050565b60006200060762000601620005fb84620005d2565b620005dc565b620005d2565b9050919050565b6000819050919050565b6200062383620005e6565b6200063b62000632826200060e565b8484546200057c565b825550505050565b600090565b6200065262000643565b6200065f81848462000618565b505050565b5b8181101562000687576200067b60008262000648565b60018101905062000665565b5050565b601f821115620006d657620006a0816200054a565b620006ab846200055f565b81016020851015620006bb578190505b620006d3620006ca856200055f565b83018262000664565b50505b505050565b600082821c905092915050565b6000620006fb60001984600802620006db565b1980831691505092915050565b6000620007168383620006e8565b9150826002028217905092915050565b6200073182620004ac565b67ffffffffffffffff8111156200074d576200074c620004b7565b5b62000759825462000515565b620007668282856200068b565b600060209050601f8311600181146200079e576000841562000789578287015190505b62000795858262000708565b86555062000805565b601f198416620007ae866200054a565b60005b82811015620007d857848901518255600182019150602085019450602081019050620007b1565b86831015620007f85784890151620007f4601f891682620006e8565b8355505b6001600288020188555050505b505050505050565b611035806200081d6000396000f3fe608060405234801561001057600080fd5b50600436106100885760003560e01c80638d6cc56d1161005b5780638d6cc56d146101145780638da5cb5b14610130578063c0351f5c1461014e578063f2fde38b1461017e57610088565b80630b0eebe41461008d5780630e168cf3146100bd5780634a5479f3146100d9578063715018a61461010a575b600080fd5b6100a760048036038101906100a29190610842565b61019a565b6040516100b49190610888565b60405180910390f35b6100d760048036038101906100d29190610901565b61020c565b005b6100f360048036038101906100ee9190610842565b61037b565b604051610101929190610a30565b60405180910390f35b610112610447565b005b61012e60048036038101906101299190610842565b61045b565b005b6101386105f9565b6040516101459190610a6f565b60405180910390f35b61016860048036038101906101639190610842565b610622565b6040516101759190610888565b60405180910390f35b61019860048036038101906101939190610a8a565b61063a565b005b6000806002600084815260200190815260200160002054036101f1576040517f08c379a00000000000000000000000000000000000000000000000000000000081526004016101e890610b29565b60405180910390fd5b60026000838152602001908152602001600020549050919050565b6102146106bd565b600073ffffffffffffffffffffffffffffffffffffffff168173ffffffffffffffffffffffffffffffffffffffff1603610283576040517f08c379a000000000000000000000000000000000000000000000000000000000815260040161027a90610b95565b60405180910390fd5b6000821180156102935750600582105b6102d2576040517f08c379a00000000000000000000000000000000000000000000000000000000081526004016102c990610c01565b60405180910390fd5b806001600084815260200190815260200160002060000160006101000a81548173ffffffffffffffffffffffffffffffffffffffff021916908373ffffffffffffffffffffffffffffffffffffffff1602179055507f776d4e4061bc9d2460fc798429abcb89b43f7c5d6c2b36b34951e38af127bbc282826001600086815260200190815260200160002060010160405161036f93929190610d29565b60405180910390a15050565b60016020528060005260406000206000915090508060000160009054906101000a900473ffffffffffffffffffffffffffffffffffffffff16908060010180546103c490610c5f565b80601f01602080910402602001604051908101604052809291908181526020018280546103f090610c5f565b801561043d5780601f106104125761010080835404028352916020019161043d565b820191906000526020600020905b81548152906001019060200180831161042057829003601f168201915b5050505050905082565b61044f6106bd565b610459600061073b565b565b6000600160008381526020019081526020016000209050600073ffffffffffffffffffffffffffffffffffffffff168160000160009054906101000a900473ffffffffffffffffffffffffffffffffffffffff1673ffffffffffffffffffffffffffffffffffffffff1603610505576040517f08c379a00000000000000000000000000000000000000000000000000000000081526004016104fc90610db3565b60405180910390fd5b60008160000160009054906101000a900473ffffffffffffffffffffffffffffffffffffffff1673ffffffffffffffffffffffffffffffffffffffff1663feaf968c6040518163ffffffff1660e01b815260040160a060405180830381865afa158015610576573d6000803e3d6000fd5b505050506040513d601f19601f8201168201806040525081019061059a9190610e56565b5050509150508060026000858152602001908152602001600020819055507f258bec2dd17c2c58a631f67d75e4a7703ba5c551ba9428e15fd9b7814972a7a982600101826040516105ec929190610ed1565b60405180910390a1505050565b60008060009054906101000a900473ffffffffffffffffffffffffffffffffffffffff16905090565b60026020528060005260406000206000915090505481565b6106426106bd565b600073ffffffffffffffffffffffffffffffffffffffff168173ffffffffffffffffffffffffffffffffffffffff16036106b1576040517f08c379a00000000000000000000000000000000000000000000000000000000081526004016106a890610f73565b60405180910390fd5b6106ba8161073b565b50565b6106c56107ff565b73ffffffffffffffffffffffffffffffffffffffff166106e36105f9565b73ffffffffffffffffffffffffffffffffffffffff1614610739576040517f08c379a000000000000000000000000000000000000000000000000000000000815260040161073090610fdf565b60405180910390fd5b565b60008060009054906101000a900473ffffffffffffffffffffffffffffffffffffffff169050816000806101000a81548173ffffffffffffffffffffffffffffffffffffffff021916908373ffffffffffffffffffffffffffffffffffffffff1602179055508173ffffffffffffffffffffffffffffffffffffffff168173ffffffffffffffffffffffffffffffffffffffff167f8be0079c531659141344cd1fd0a4f28419497f9722a3daafe3b4186f6b6457e060405160405180910390a35050565b600033905090565b600080fd5b6000819050919050565b61081f8161080c565b811461082a57600080fd5b50565b60008135905061083c81610816565b92915050565b60006020828403121561085857610857610807565b5b60006108668482850161082d565b91505092915050565b6000819050919050565b6108828161086f565b82525050565b600060208201905061089d6000830184610879565b92915050565b600073ffffffffffffffffffffffffffffffffffffffff82169050919050565b60006108ce826108a3565b9050919050565b6108de816108c3565b81146108e957600080fd5b50565b6000813590506108fb816108d5565b92915050565b6000806040838503121561091857610917610807565b5b60006109268582860161082d565b9250506020610937858286016108ec565b9150509250929050565b6000819050919050565b600061096661096161095c846108a3565b610941565b6108a3565b9050919050565b60006109788261094b565b9050919050565b600061098a8261096d565b9050919050565b61099a8161097f565b82525050565b600081519050919050565b600082825260208201905092915050565b60005b838110156109da5780820151818401526020810190506109bf565b60008484015250505050565b6000601f19601f8301169050919050565b6000610a02826109a0565b610a0c81856109ab565b9350610a1c8185602086016109bc565b610a25816109e6565b840191505092915050565b6000604082019050610a456000830185610991565b8181036020830152610a5781846109f7565b90509392505050565b610a69816108c3565b82525050565b6000602082019050610a846000830184610a60565b92915050565b600060208284031215610aa057610a9f610807565b5b6000610aae848285016108ec565b91505092915050565b7f4c617465737420707269636520636f6e76657273696f6e20686173206e6f742060008201527f6265656e207265747269657665642e0000000000000000000000000000000000602082015250565b6000610b13602f836109ab565b9150610b1e82610ab7565b604082019050919050565b60006020820190508181036000830152610b4281610b06565b9050919050565b7f55706461746564206164647265737320697320756e646566696e65642e000000600082015250565b6000610b7f601d836109ab565b9150610b8a82610b49565b602082019050919050565b60006020820190508181036000830152610bae81610b72565b9050919050565b7f696e76616c696420666565642049442e00000000000000000000000000000000600082015250565b6000610beb6010836109ab565b9150610bf682610bb5565b602082019050919050565b60006020820190508181036000830152610c1a81610bde565b9050919050565b610c2a8161080c565b82525050565b7f4e487b7100000000000000000000000000000000000000000000000000000000600052602260045260246000fd5b60006002820490506001821680610c7757607f821691505b602082108103610c8a57610c89610c30565b5b50919050565b60008190508160005260206000209050919050565b60008154610cb281610c5f565b610cbc81866109ab565b94506001821660008114610cd75760018114610ced57610d20565b60ff198316865281151560200286019350610d20565b610cf685610c90565b60005b83811015610d1857815481890152600182019150602081019050610cf9565b808801955050505b50505092915050565b6000606082019050610d3e6000830186610c21565b610d4b6020830185610a60565b8181036040830152610d5d8184610ca5565b9050949350505050565b7f436f6e74726163742061646472657373206e6f7420666f756e642e0000000000600082015250565b6000610d9d601b836109ab565b9150610da882610d67565b602082019050919050565b60006020820190508181036000830152610dcc81610d90565b9050919050565b600069ffffffffffffffffffff82169050919050565b610df281610dd3565b8114610dfd57600080fd5b50565b600081519050610e0f81610de9565b92915050565b610e1e8161086f565b8114610e2957600080fd5b50565b600081519050610e3b81610e15565b92915050565b600081519050610e5081610816565b92915050565b600080600080600060a08688031215610e7257610e71610807565b5b6000610e8088828901610e00565b9550506020610e9188828901610e2c565b9450506040610ea288828901610e41565b9350506060610eb388828901610e41565b9250506080610ec488828901610e00565b9150509295509295909350565b60006040820190508181036000830152610eeb8185610ca5565b9050610efa6020830184610879565b9392505050565b7f4f776e61626c653a206e6577206f776e657220697320746865207a65726f206160008201527f6464726573730000000000000000000000000000000000000000000000000000602082015250565b6000610f5d6026836109ab565b9150610f6882610f01565b604082019050919050565b60006020820190508181036000830152610f8c81610f50565b9050919050565b7f4f776e61626c653a2063616c6c6572206973206e6f7420746865206f776e6572600082015250565b6000610fc96020836109ab565b9150610fd482610f93565b602082019050919050565b60006020820190508181036000830152610ff881610fbc565b905091905056fea2646970667358221220dd8aae3b7d7edcdb70062628738673446b2cf8c0661208fedb1de0924445442464736f6c63430008140033",
  "linkReferences": {},
  "deployedLinkReferences": {}
}