{"contracts/PriceFeed.sol":{"PriceFeed":{"abi":[{"inputs":[],"stateMutability":"nonpayable","type":"constructor"},{"anonymous":false,"inputs":[{"indexed":false,"internalType":"uint256","name":"feedid","type":"uint256"},{"indexed":false,"internalType":"address","name":"newAddress","type":"address"},{"indexed":false,"internalType":"string","name":"description","type":"string"}],"name":"FeedAddressUpdated","type":"event"},{"anonymous":false,"inputs":[{"indexed":true,"internalType":"address","name":"previousOwner","type":"address"},{"indexed":true,"internalType":"address","name":"newOwner","type":"address"}],"name":"OwnershipTransferred","type":"event"},{"anonymous":false,"inputs":[{"indexed":false,"internalType":"string","name":"description","type":"string"},{"indexed":false,"internalType":"int256","name":"price","type":"int256"}],"name":"PriceRequested","type":"event"},{"inputs":[{"internalType":"uint256","name":"","type":"uint256"}],"name":"feeds","outputs":[{"internalType":"contract AggregatorV3Interface","name":"aggregator","type":"address"},{"internalType":"string","name":"description","type":"string"}],"stateMutability":"view","type":"function"},{"inputs":[{"internalType":"uint256","name":"feedid","type":"uint256"}],"name":"getLastFetchedPrice","outputs":[{"internalType":"int256","name":"","type":"int256"}],"stateMutability":"view","type":"function"},{"inputs":[{"internalType":"uint256","name":"","type":"uint256"}],"name":"lastFetchedPrice","outputs":[{"internalType":"int256","name":"","type":"int256"}],"stateMutability":"view","type":"function"},{"inputs":[],"name":"owner","outputs":[{"internalType":"address","name":"","type":"address"}],"stateMutability":"view","type":"function"},{"inputs":[],"name":"renounceOwnership","outputs":[],"stateMutability":"nonpayable","type":"function"},{"inputs":[{"internalType":"address","name":"newOwner","type":"address"}],"name":"transferOwnership","outputs":[],"stateMutability":"nonpayable","type":"function"},{"inputs":[{"internalType":"uint256","name":"feedid","type":"uint256"},{"internalType":"address","name":"newAddress","type":"address"}],"name":"updateFeedAddress","outputs":[],"stateMutability":"nonpayable","type":"function"},{"inputs":[{"internalType":"uint256","name":"feedid","type":"uint256"}],"name":"updatePrice","outputs":[],"stateMutability":"nonpayable","type":"function"}],"evm":{"bytecode":{"linkReferences":{},"object":"60806040523480156200001157600080fd5b506200003262000026620003e060201b60201c565b620003e860201b60201c565b60405180604001604052807331cf013a08c6ac228c94551d535d5bafe19c602a73ffffffffffffffffffffffffffffffffffffffff1681526020016040518060400160405280600781526020017f4254432f55534400000000000000000000000000000000000000000000000000815250815250600160006001815260200190815260200160002060008201518160000160006101000a81548173ffffffffffffffffffffffffffffffffffffffff021916908373ffffffffffffffffffffffffffffffffffffffff160217905550602082015181600101908162000118919062000726565b5090505060405180604001604052807386d67c3d38d2bcee722e601025c25a575021c6ea73ffffffffffffffffffffffffffffffffffffffff1681526020016040518060400160405280600781526020017f4554482f55534400000000000000000000000000000000000000000000000000815250815250600160006002815260200190815260200160002060008201518160000160006101000a81548173ffffffffffffffffffffffffffffffffffffffff021916908373ffffffffffffffffffffffffffffffffffffffff160217905550602082015181600101908162000202919062000726565b5090505060405180604001604052807334c4c526902d88a3aa98db8a9b802603eb1e347073ffffffffffffffffffffffffffffffffffffffff1681526020016040518060400160405280600881526020017f4c494e4b2f555344000000000000000000000000000000000000000000000000815250815250600160006003815260200190815260200160002060008201518160000160006101000a81548173ffffffffffffffffffffffffffffffffffffffff021916908373ffffffffffffffffffffffffffffffffffffffff1602179055506020820151816001019081620002ec919062000726565b50905050604051806040016040528073378e78509a907b1ec5c24d9f0243bd39f7a7b00773ffffffffffffffffffffffffffffffffffffffff1681526020016040518060400160405280600781526020017f4254432f45544800000000000000000000000000000000000000000000000000815250815250600160006004815260200190815260200160002060008201518160000160006101000a81548173ffffffffffffffffffffffffffffffffffffffff021916908373ffffffffffffffffffffffffffffffffffffffff1602179055506020820151816001019081620003d6919062000726565b509050506200080d565b600033905090565b60008060009054906101000a900473ffffffffffffffffffffffffffffffffffffffff169050816000806101000a81548173ffffffffffffffffffffffffffffffffffffffff021916908373ffffffffffffffffffffffffffffffffffffffff1602179055508173ffffffffffffffffffffffffffffffffffffffff168173ffffffffffffffffffffffffffffffffffffffff167f8be0079c531659141344cd1fd0a4f28419497f9722a3daafe3b4186f6b6457e060405160405180910390a35050565b600081519050919050565b7f4e487b7100000000000000000000000000000000000000000000000000000000600052604160045260246000fd5b7f4e487b7100000000000000000000000000000000000000000000000000000000600052602260045260246000fd5b600060028204905060018216806200052e57607f821691505b602082108103620005445762000543620004e6565b5b50919050565b60008190508160005260206000209050919050565b60006020601f8301049050919050565b600082821b905092915050565b600060088302620005ae7fffffffffffffffffffffffffffffffffffffffffffffffffffffffffffffffff826200056f565b620005ba86836200056f565b95508019841693508086168417925050509392505050565b6000819050919050565b6000819050919050565b60006200060762000601620005fb84620005d2565b620005dc565b620005d2565b9050919050565b6000819050919050565b6200062383620005e6565b6200063b62000632826200060e565b8484546200057c565b825550505050565b600090565b6200065262000643565b6200065f81848462000618565b505050565b5b8181101562000687576200067b60008262000648565b60018101905062000665565b5050565b601f821115620006d657620006a0816200054a565b620006ab846200055f565b81016020851015620006bb578190505b620006d3620006ca856200055f565b83018262000664565b50505b505050565b600082821c905092915050565b6000620006fb60001984600802620006db565b1980831691505092915050565b6000620007168383620006e8565b9150826002028217905092915050565b6200073182620004ac565b67ffffffffffffffff8111156200074d576200074c620004b7565b5b62000759825462000515565b620007668282856200068b565b600060209050601f8311600181146200079e576000841562000789578287015190505b62000795858262000708565b86555062000805565b601f198416620007ae866200054a565b60005b82811015620007d857848901518255600182019150602085019450602081019050620007b1565b86831015620007f85784890151620007f4601f891682620006e8565b8355505b6001600288020188555050505b505050505050565b611035806200081d6000396000f3fe608060405234801561001057600080fd5b50600436106100885760003560e01c80638d6cc56d1161005b5780638d6cc56d146101145780638da5cb5b14610130578063c0351f5c1461014e578063f2fde38b1461017e57610088565b80630b0eebe41461008d5780630e168cf3146100bd5780634a5479f3146100d9578063715018a61461010a575b600080fd5b6100a760048036038101906100a29190610842565b61019a565b6040516100b49190610888565b60405180910390f35b6100d760048036038101906100d29190610901565b61020c565b005b6100f360048036038101906100ee9190610842565b61037b565b604051610101929190610a30565b60405180910390f35b610112610447565b005b61012e60048036038101906101299190610842565b61045b565b005b6101386105f9565b6040516101459190610a6f565b60405180910390f35b61016860048036038101906101639190610842565b610622565b6040516101759190610888565b60405180910390f35b61019860048036038101906101939190610a8a565b61063a565b005b6000806002600084815260200190815260200160002054036101f1576040517f08c379a00000000000000000000000000000000000000000000000000000000081526004016101e890610b29565b60405180910390fd5b60026000838152602001908152602001600020549050919050565b6102146106bd565b600073ffffffffffffffffffffffffffffffffffffffff168173ffffffffffffffffffffffffffffffffffffffff1603610283576040517f08c379a000000000000000000000000000000000000000000000000000000000815260040161027a90610b95565b60405180910390fd5b6000821180156102935750600582105b6102d2576040517f08c379a00000000000000000000000000000000000000000000000000000000081526004016102c990610c01565b60405180910390fd5b806001600084815260200190815260200160002060000160006101000a81548173ffffffffffffffffffffffffffffffffffffffff021916908373ffffffffffffffffffffffffffffffffffffffff1602179055507f776d4e4061bc9d2460fc798429abcb89b43f7c5d6c2b36b34951e38af127bbc282826001600086815260200190815260200160002060010160405161036f93929190610d29565b60405180910390a15050565b60016020528060005260406000206000915090508060000160009054906101000a900473ffffffffffffffffffffffffffffffffffffffff16908060010180546103c490610c5f565b80601f01602080910402602001604051908101604052809291908181526020018280546103f090610c5f565b801561043d5780601f106104125761010080835404028352916020019161043d565b820191906000526020600020905b81548152906001019060200180831161042057829003601f168201915b5050505050905082565b61044f6106bd565b610459600061073b565b565b6000600160008381526020019081526020016000209050600073ffffffffffffffffffffffffffffffffffffffff168160000160009054906101000a900473ffffffffffffffffffffffffffffffffffffffff1673ffffffffffffffffffffffffffffffffffffffff1603610505576040517f08c379a00000000000000000000000000000000000000000000000000000000081526004016104fc90610db3565b60405180910390fd5b60008160000160009054906101000a900473ffffffffffffffffffffffffffffffffffffffff1673ffffffffffffffffffffffffffffffffffffffff1663feaf968c6040518163ffffffff1660e01b815260040160a060405180830381865afa158015610576573d6000803e3d6000fd5b505050506040513d601f19601f8201168201806040525081019061059a9190610e56565b5050509150508060026000858152602001908152602001600020819055507f258bec2dd17c2c58a631f67d75e4a7703ba5c551ba9428e15fd9b7814972a7a982600101826040516105ec929190610ed1565b60405180910390a1505050565b60008060009054906101000a900473ffffffffffffffffffffffffffffffffffffffff16905090565b60026020528060005260406000206000915090505481565b6106426106bd565b600073ffffffffffffffffffffffffffffffffffffffff168173ffffffffffffffffffffffffffffffffffffffff16036106b1576040517f08c379a00000000000000000000000000000000000000000000000000000000081526004016106a890610f73565b60405180910390fd5b6106ba8161073b565b50565b6106c56107ff565b73ffffffffffffffffffffffffffffffffffffffff166106e36105f9565b73ffffffffffffffffffffffffffffffffffffffff1614610739576040517f08c379a000000000000000000000000000000000000000000000000000000000815260040161073090610fdf565b60405180910390fd5b565b60008060009054906101000a900473ffffffffffffffffffffffffffffffffffffffff169050816000806101000a81548173ffffffffffffffffffffffffffffffffffffffff021916908373ffffffffffffffffffffffffffffffffffffffff1602179055508173ffffffffffffffffffffffffffffffffffffffff168173ffffffffffffffffffffffffffffffffffffffff167f8be0079c531659141344cd1fd0a4f28419497f9722a3daafe3b4186f6b6457e060405160405180910390a35050565b600033905090565b600080fd5b6000819050919050565b61081f8161080c565b811461082a57600080fd5b50565b60008135905061083c81610816565b92915050565b60006020828403121561085857610857610807565b5b60006108668482850161082d565b91505092915050565b6000819050919050565b6108828161086f565b82525050565b600060208201905061089d6000830184610879565b92915050565b600073ffffffffffffffffffffffffffffffffffffffff82169050919050565b60006108ce826108a3565b9050919050565b6108de816108c3565b81146108e957600080fd5b50565b6000813590506108fb816108d5565b92915050565b6000806040838503121561091857610917610807565b5b60006109268582860161082d565b9250506020610937858286016108ec565b9150509250929050565b6000819050919050565b600061096661096161095c846108a3565b610941565b6108a3565b9050919050565b60006109788261094b565b9050919050565b600061098a8261096d565b9050919050565b61099a8161097f565b82525050565b600081519050919050565b600082825260208201905092915050565b60005b838110156109da5780820151818401526020810190506109bf565b60008484015250505050565b6000601f19601f8301169050919050565b6000610a02826109a0565b610a0c81856109ab565b9350610a1c8185602086016109bc565b610a25816109e6565b840191505092915050565b6000604082019050610a456000830185610991565b8181036020830152610a5781846109f7565b90509392505050565b610a69816108c3565b82525050565b6000602082019050610a846000830184610a60565b92915050565b600060208284031215610aa057610a9f610807565b5b6000610aae848285016108ec565b91505092915050565b7f4c617465737420707269636520636f6e76657273696f6e20686173206e6f742060008201527f6265656e207265747269657665642e0000000000000000000000000000000000602082015250565b6000610b13602f836109ab565b9150610b1e82610ab7565b604082019050919050565b60006020820190508181036000830152610b4281610b06565b9050919050565b7f55706461746564206164647265737320697320756e646566696e65642e000000600082015250565b6000610b7f601d836109ab565b9150610b8a82610b49565b602082019050919050565b60006020820190508181036000830152610bae81610b72565b9050919050565b7f696e76616c696420666565642049442e00000000000000000000000000000000600082015250565b6000610beb6010836109ab565b9150610bf682610bb5565b602082019050919050565b60006020820190508181036000830152610c1a81610bde565b9050919050565b610c2a8161080c565b82525050565b7f4e487b7100000000000000000000000000000000000000000000000000000000600052602260045260246000fd5b60006002820490506001821680610c7757607f821691505b602082108103610c8a57610c89610c30565b5b50919050565b60008190508160005260206000209050919050565b60008154610cb281610c5f565b610cbc81866109ab565b94506001821660008114610cd75760018114610ced57610d20565b60ff198316865281151560200286019350610d20565b610cf685610c90565b60005b83811015610d1857815481890152600182019150602081019050610cf9565b808801955050505b50505092915050565b6000606082019050610d3e6000830186610c21565b610d4b6020830185610a60565b8181036040830152610d5d8184610ca5565b9050949350505050565b7f436f6e74726163742061646472657373206e6f7420666f756e642e0000000000600082015250565b6000610d9d601b836109ab565b9150610da882610d67565b602082019050919050565b60006020820190508181036000830152610dcc81610d90565b9050919050565b600069ffffffffffffffffffff82169050919050565b610df281610dd3565b8114610dfd57600080fd5b50565b600081519050610e0f81610de9565b92915050565b610e1e8161086f565b8114610e2957600080fd5b50565b600081519050610e3b81610e15565b92915050565b600081519050610e5081610816565b92915050565b600080600080600060a08688031215610e7257610e71610807565b5b6000610e8088828901610e00565b9550506020610e9188828901610e2c565b9450506040610ea288828901610e41565b9350506060610eb388828901610e41565b9250506080610ec488828901610e00565b9150509295509295909350565b60006040820190508181036000830152610eeb8185610ca5565b9050610efa6020830184610879565b9392505050565b7f4f776e61626c653a206e6577206f776e657220697320746865207a65726f206160008201527f6464726573730000000000000000000000000000000000000000000000000000602082015250565b6000610f5d6026836109ab565b9150610f6882610f01565b604082019050919050565b60006020820190508181036000830152610f8c81610f50565b9050919050565b7f4f776e61626c653a2063616c6c6572206973206e6f7420746865206f776e6572600082015250565b6000610fc96020836109ab565b9150610fd482610f93565b602082019050919050565b60006020820190508181036000830152610ff881610fbc565b905091905056fea2646970667358221220dd8aae3b7d7edcdb70062628738673446b2cf8c0661208fedb1de0924445442464736f6c63430008140033","opcodes":"PUSH1 0x80 PUSH1 0x40 MSTORE CALLVALUE DUP1 ISZERO PUSH3 0x11 JUMPI PUSH1 0x0 DUP1 REVERT JUMPDEST POP PUSH3 0x32 PUSH3 0x26 PUSH3 0x3E0 PUSH1 0x20 SHL PUSH1 0x20 SHR JUMP JUMPDEST PUSH3 0x3E8 PUSH1 0x20 SHL PUSH1 0x20 SHR JUMP JUMPDEST PUSH1 0x40 MLOAD DUP1 PUSH1 0x40 ADD PUSH1 0x40 MSTORE DUP1 PUSH20 0x31CF013A08C6AC228C94551D535D5BAFE19C602A PUSH20 0xFFFFFFFFFFFFFFFFFFFFFFFFFFFFFFFFFFFFFFFF AND DUP2 MSTORE PUSH1 0x20 ADD PUSH1 0x40 MLOAD DUP1 PUSH1 0x40 ADD PUSH1 0x40 MSTORE DUP1 PUSH1 0x7 DUP2 MSTORE PUSH1 0x20 ADD PUSH32 0x4254432F55534400000000000000000000000000000000000000000000000000 DUP2 MSTORE POP DUP2 MSTORE POP PUSH1 0x1 PUSH1 0x0 PUSH1 0x1 DUP2 MSTORE PUSH1 0x20 ADD SWAP1 DUP2 MSTORE PUSH1 0x20 ADD PUSH1 0x0 KECCAK256 PUSH1 0x0 DUP3 ADD MLOAD DUP2 PUSH1 0x0 ADD PUSH1 0x0 PUSH2 0x100 EXP DUP2 SLOAD DUP2 PUSH20 0xFFFFFFFFFFFFFFFFFFFFFFFFFFFFFFFFFFFFFFFF MUL NOT AND SWAP1 DUP4 PUSH20 0xFFFFFFFFFFFFFFFFFFFFFFFFFFFFFFFFFFFFFFFF AND MUL OR SWAP1 SSTORE POP PUSH1 0x20 DUP3 ADD MLOAD DUP2 PUSH1 0x1 ADD SWAP1 DUP2 PUSH3 0x118 SWAP2 SWAP1 PUSH3 0x726 JUMP JUMPDEST POP SWAP1 POP POP PUSH1 0x40 MLOAD DUP1 PUSH1 0x40 ADD PUSH1 0x40 MSTORE DUP1 PUSH20 0x86D67C3D38D2BCEE722E601025C25A575021C6EA PUSH20 0xFFFFFFFFFFFFFFFFFFFFFFFFFFFFFFFFFFFFFFFF AND DUP2 MSTORE PUSH1 0x20 ADD PUSH1 0x40 MLOAD DUP1 PUSH1 0x40 ADD PUSH1 0x40 MSTORE DUP1 PUSH1 0x7 DUP2 MSTORE PUSH1 0x20 ADD PUSH32 0x4554482F55534400000000000000000000000000000000000000000000000000 DUP2 MSTORE POP DUP2 MSTORE POP PUSH1 0x1 PUSH1 0x0 PUSH1 0x2 DUP2 MSTORE PUSH1 0x20 ADD SWAP1 DUP2 MSTORE PUSH1 0x20 ADD PUSH1 0x0 KECCAK256 PUSH1 0x0 DUP3 ADD MLOAD DUP2 PUSH1 0x0 ADD PUSH1 0x0 PUSH2 0x100 EXP DUP2 SLOAD DUP2 PUSH20 0xFFFFFFFFFFFFFFFFFFFFFFFFFFFFFFFFFFFFFFFF MUL NOT AND SWAP1 DUP4 PUSH20 0xFFFFFFFFFFFFFFFFFFFFFFFFFFFFFFFFFFFFFFFF AND MUL OR SWAP1 SSTORE POP PUSH1 0x20 DUP3 ADD MLOAD DUP2 PUSH1 0x1 ADD SWAP1 DUP2 PUSH3 0x202 SWAP2 SWAP1 PUSH3 0x726 JUMP JUMPDEST POP SWAP1 POP POP PUSH1 0x40 MLOAD DUP1 PUSH1 0x40 ADD PUSH1 0x40 MSTORE DUP1 PUSH20 0x34C4C526902D88A3AA98DB8A9B802603EB1E3470 PUSH20 0xFFFFFFFFFFFFFFFFFFFFFFFFFFFFFFFFFFFFFFFF AND DUP2 MSTORE PUSH1 0x20 ADD PUSH1 0x40 MLOAD DUP1 PUSH1 0x40 ADD PUSH1 0x40 MSTORE DUP1 PUSH1 0x8 DUP2 MSTORE PUSH1 0x20 ADD PUSH32 0x4C494E4B2F555344000000000000000000000000000000000000000000000000 DUP2 MSTORE POP DUP2 MSTORE POP PUSH1 0x1 PUSH1 0x0 PUSH1 0x3 DUP2 MSTORE PUSH1 0x20 ADD SWAP1 DUP2 MSTORE PUSH1 0x20 ADD PUSH1 0x0 KECCAK256 PUSH1 0x0 DUP3 ADD MLOAD DUP2 PUSH1 0x0 ADD PUSH1 0x0 PUSH2 0x100 EXP DUP2 SLOAD DUP2 PUSH20 0xFFFFFFFFFFFFFFFFFFFFFFFFFFFFFFFFFFFFFFFF MUL NOT AND SWAP1 DUP4 PUSH20 0xFFFFFFFFFFFFFFFFFFFFFFFFFFFFFFFFFFFFFFFF AND MUL OR SWAP1 SSTORE POP PUSH1 0x20 DUP3 ADD MLOAD DUP2 PUSH1 0x1 ADD SWAP1 DUP2 PUSH3 0x2EC SWAP2 SWAP1 PUSH3 0x726 JUMP JUMPDEST POP SWAP1 POP POP PUSH1 0x40 MLOAD DUP1 PUSH1 0x40 ADD PUSH1 0x40 MSTORE DUP1 PUSH20 0x378E78509A907B1EC5C24D9F0243BD39F7A7B007 PUSH20 0xFFFFFFFFFFFFFFFFFFFFFFFFFFFFFFFFFFFFFFFF AND DUP2 MSTORE PUSH1 0x20 ADD PUSH1 0x40 MLOAD DUP1 PUSH1 0x40 ADD PUSH1 0x40 MSTORE DUP1 PUSH1 0x7 DUP2 MSTORE PUSH1 0x20 ADD PUSH32 0x4254432F45544800000000000000000000000000000000000000000000000000 DUP2 MSTORE POP DUP2 MSTORE POP PUSH1 0x1 PUSH1 0x0 PUSH1 0x4 DUP2 MSTORE PUSH1 0x20 ADD SWAP1 DUP2 MSTORE PUSH1 0x20 ADD PUSH1 0x0 KECCAK256 PUSH1 0x0 DUP3 ADD MLOAD DUP2 PUSH1 0x0 ADD PUSH1 0x0 PUSH2 0x100 EXP DUP2 SLOAD DUP2 PUSH20 0xFFFFFFFFFFFFFFFFFFFFFFFFFFFFFFFFFFFFFFFF MUL NOT AND SWAP1 DUP4 PUSH20 0xFFFFFFFFFFFFFFFFFFFFFFFFFFFFFFFFFFFFFFFF AND MUL OR SWAP1 SSTORE POP PUSH1 0x20 DUP3 ADD MLOAD DUP2 PUSH1 0x1 ADD SWAP1 DUP2 PUSH3 0x3D6 SWAP2 SWAP1 PUSH3 0x726 JUMP JUMPDEST POP SWAP1 POP POP PUSH3 0x80D JUMP JUMPDEST PUSH1 0x0 CALLER SWAP1 POP SWAP1 JUMP JUMPDEST PUSH1 0x0 DUP1 PUSH1 0x0 SWAP1 SLOAD SWAP1 PUSH2 0x100 EXP SWAP1 DIV PUSH20 0xFFFFFFFFFFFFFFFFFFFFFFFFFFFFFFFFFFFFFFFF AND SWAP1 POP DUP2 PUSH1 0x0 DUP1 PUSH2 0x100 EXP DUP2 SLOAD DUP2 PUSH20 0xFFFFFFFFFFFFFFFFFFFFFFFFFFFFFFFFFFFFFFFF MUL NOT AND SWAP1 DUP4 PUSH20 0xFFFFFFFFFFFFFFFFFFFFFFFFFFFFFFFFFFFFFFFF AND MUL OR SWAP1 SSTORE POP DUP2 PUSH20 0xFFFFFFFFFFFFFFFFFFFFFFFFFFFFFFFFFFFFFFFF AND DUP2 PUSH20 0xFFFFFFFFFFFFFFFFFFFFFFFFFFFFFFFFFFFFFFFF AND PUSH32 0x8BE0079C531659141344CD1FD0A4F28419497F9722A3DAAFE3B4186F6B6457E0 PUSH1 0x40 MLOAD PUSH1 0x40 MLOAD DUP1 SWAP2 SUB SWAP1 LOG3 POP POP JUMP JUMPDEST PUSH1 0x0 DUP2 MLOAD SWAP1 POP SWAP2 SWAP1 POP JUMP JUMPDEST PUSH32 0x4E487B7100000000000000000000000000000000000000000000000000000000 PUSH1 0x0 MSTORE PUSH1 0x41 PUSH1 0x4 MSTORE PUSH1 0x24 PUSH1 0x0 REVERT JUMPDEST PUSH32 0x4E487B7100000000000000000000000000000000000000000000000000000000 PUSH1 0x0 MSTORE PUSH1 0x22 PUSH1 0x4 MSTORE PUSH1 0x24 PUSH1 0x0 REVERT JUMPDEST PUSH1 0x0 PUSH1 0x2 DUP3 DIV SWAP1 POP PUSH1 0x1 DUP3 AND DUP1 PUSH3 0x52E JUMPI PUSH1 0x7F DUP3 AND SWAP2 POP JUMPDEST PUSH1 0x20 DUP3 LT DUP2 SUB PUSH3 0x544 JUMPI PUSH3 0x543 PUSH3 0x4E6 JUMP JUMPDEST JUMPDEST POP SWAP2 SWAP1 POP JUMP JUMPDEST PUSH1 0x0 DUP2 SWAP1 POP DUP2 PUSH1 0x0 MSTORE PUSH1 0x20 PUSH1 0x0 KECCAK256 SWAP1 POP SWAP2 SWAP1 POP JUMP JUMPDEST PUSH1 0x0 PUSH1 0x20 PUSH1 0x1F DUP4 ADD DIV SWAP1 POP SWAP2 SWAP1 POP JUMP JUMPDEST PUSH1 0x0 DUP3 DUP3 SHL SWAP1 POP SWAP3 SWAP2 POP POP JUMP JUMPDEST PUSH1 0x0 PUSH1 0x8 DUP4 MUL PUSH3 0x5AE PUSH32 0xFFFFFFFFFFFFFFFFFFFFFFFFFFFFFFFFFFFFFFFFFFFFFFFFFFFFFFFFFFFFFFFF DUP3 PUSH3 0x56F JUMP JUMPDEST PUSH3 0x5BA DUP7 DUP4 PUSH3 0x56F JUMP JUMPDEST SWAP6 POP DUP1 NOT DUP5 AND SWAP4 POP DUP1 DUP7 AND DUP5 OR SWAP3 POP POP POP SWAP4 SWAP3 POP POP POP JUMP JUMPDEST PUSH1 0x0 DUP2 SWAP1 POP SWAP2 SWAP1 POP JUMP JUMPDEST PUSH1 0x0 DUP2 SWAP1 POP SWAP2 SWAP1 POP JUMP JUMPDEST PUSH1 0x0 PUSH3 0x607 PUSH3 0x601 PUSH3 0x5FB DUP5 PUSH3 0x5D2 JUMP JUMPDEST PUSH3 0x5DC JUMP JUMPDEST PUSH3 0x5D2 JUMP JUMPDEST SWAP1 POP SWAP2 SWAP1 POP JUMP JUMPDEST PUSH1 0x0 DUP2 SWAP1 POP SWAP2 SWAP1 POP JUMP JUMPDEST PUSH3 0x623 DUP4 PUSH3 0x5E6 JUMP JUMPDEST PUSH3 0x63B PUSH3 0x632 DUP3 PUSH3 0x60E JUMP JUMPDEST DUP5 DUP5 SLOAD PUSH3 0x57C JUMP JUMPDEST DUP3 SSTORE POP POP POP POP JUMP JUMPDEST PUSH1 0x0 SWAP1 JUMP JUMPDEST PUSH3 0x652 PUSH3 0x643 JUMP JUMPDEST PUSH3 0x65F DUP2 DUP5 DUP5 PUSH3 0x618 JUMP JUMPDEST POP POP POP JUMP JUMPDEST JUMPDEST DUP2 DUP2 LT ISZERO PUSH3 0x687 JUMPI PUSH3 0x67B PUSH1 0x0 DUP3 PUSH3 0x648 JUMP JUMPDEST PUSH1 0x1 DUP2 ADD SWAP1 POP PUSH3 0x665 JUMP JUMPDEST POP POP JUMP JUMPDEST PUSH1 0x1F DUP3 GT ISZERO PUSH3 0x6D6 JUMPI PUSH3 0x6A0 DUP2 PUSH3 0x54A JUMP JUMPDEST PUSH3 0x6AB DUP5 PUSH3 0x55F JUMP JUMPDEST DUP2 ADD PUSH1 0x20 DUP6 LT ISZERO PUSH3 0x6BB JUMPI DUP2 SWAP1 POP JUMPDEST PUSH3 0x6D3 PUSH3 0x6CA DUP6 PUSH3 0x55F JUMP JUMPDEST DUP4 ADD DUP3 PUSH3 0x664 JUMP JUMPDEST POP POP JUMPDEST POP POP POP JUMP JUMPDEST PUSH1 0x0 DUP3 DUP3 SHR SWAP1 POP SWAP3 SWAP2 POP POP JUMP JUMPDEST PUSH1 0x0 PUSH3 0x6FB PUSH1 0x0 NOT DUP5 PUSH1 0x8 MUL PUSH3 0x6DB JUMP JUMPDEST NOT DUP1 DUP4 AND SWAP2 POP POP SWAP3 SWAP2 POP POP JUMP JUMPDEST PUSH1 0x0 PUSH3 0x716 DUP4 DUP4 PUSH3 0x6E8 JUMP JUMPDEST SWAP2 POP DUP3 PUSH1 0x2 MUL DUP3 OR SWAP1 POP SWAP3 SWAP2 POP POP JUMP JUMPDEST PUSH3 0x731 DUP3 PUSH3 0x4AC JUMP JUMPDEST PUSH8 0xFFFFFFFFFFFFFFFF DUP2 GT ISZERO PUSH3 0x74D JUMPI PUSH3 0x74C PUSH3 0x4B7 JUMP JUMPDEST JUMPDEST PUSH3 0x759 DUP3 SLOAD PUSH3 0x515 JUMP JUMPDEST PUSH3 0x766 DUP3 DUP3 DUP6 PUSH3 0x68B JUMP JUMPDEST PUSH1 0x0 PUSH1 0x20 SWAP1 POP PUSH1 0x1F DUP4 GT PUSH1 0x1 DUP2 EQ PUSH3 0x79E JUMPI PUSH1 0x0 DUP5 ISZERO PUSH3 0x789 JUMPI DUP3 DUP8 ADD MLOAD SWAP1 POP JUMPDEST PUSH3 0x795 DUP6 DUP3 PUSH3 0x708 JUMP JUMPDEST DUP7 SSTORE POP PUSH3 0x805 JUMP JUMPDEST PUSH1 0x1F NOT DUP5 AND PUSH3 0x7AE DUP7 PUSH3 0x54A JUMP JUMPDEST PUSH1 0x0 JUMPDEST DUP3 DUP2 LT ISZERO PUSH3 0x7D8 JUMPI DUP5 DUP10 ADD MLOAD DUP3 SSTORE PUSH1 0x1 DUP3 ADD SWAP2 POP PUSH1 0x20 DUP6 ADD SWAP5 POP PUSH1 0x20 DUP2 ADD SWAP1 POP PUSH3 0x7B1 JUMP JUMPDEST DUP7 DUP4 LT ISZERO PUSH3 0x7F8 JUMPI DUP5 DUP10 ADD MLOAD PUSH3 0x7F4 PUSH1 0x1F DUP10 AND DUP3 PUSH3 0x6E8 JUMP JUMPDEST DUP4 SSTORE POP JUMPDEST PUSH1 0x1 PUSH1 0x2 DUP9 MUL ADD DUP9 SSTORE POP POP POP JUMPDEST POP POP POP POP POP POP JUMP JUMPDEST PUSH2 0x1035 DUP1 PUSH3 0x81D PUSH1 0x0 CODECOPY PUSH1 0x0 RETURN INVALID PUSH1 0x80 PUSH1 0x40 MSTORE CALLVALUE DUP1 ISZERO PUSH2 0x10 JUMPI PUSH1 0x0 DUP1 REVERT JUMPDEST POP PUSH1 0x4 CALLDATASIZE LT PUSH2 0x88 JUMPI PUSH1 0x0 CALLDATALOAD PUSH1 0xE0 SHR DUP1 PUSH4 0x8D6CC56D GT PUSH2 0x5B JUMPI DUP1 PUSH4 0x8D6CC56D EQ PUSH2 0x114 JUMPI DUP1 PUSH4 0x8DA5CB5B EQ PUSH2 0x130 JUMPI DUP1 PUSH4 0xC0351F5C EQ PUSH2 0x14E JUMPI DUP1 PUSH4 0xF2FDE38B EQ PUSH2 0x17E JUMPI PUSH2 0x88 JUMP JUMPDEST DUP1 PUSH4 0xB0EEBE4 EQ PUSH2 0x8D JUMPI DUP1 PUSH4 0xE168CF3 EQ PUSH2 0xBD JUMPI DUP1 PUSH4 0x4A5479F3 EQ PUSH2 0xD9 JUMPI DUP1 PUSH4 0x715018A6 EQ PUSH2 0x10A JUMPI JUMPDEST PUSH1 0x0 DUP1 REVERT JUMPDEST PUSH2 0xA7 PUSH1 0x4 DUP1 CALLDATASIZE SUB DUP2 ADD SWAP1 PUSH2 0xA2 SWAP2 SWAP1 PUSH2 0x842 JUMP JUMPDEST PUSH2 0x19A JUMP JUMPDEST PUSH1 0x40 MLOAD PUSH2 0xB4 SWAP2 SWAP1 PUSH2 0x888 JUMP JUMPDEST PUSH1 0x40 MLOAD DUP1 SWAP2 SUB SWAP1 RETURN JUMPDEST PUSH2 0xD7 PUSH1 0x4 DUP1 CALLDATASIZE SUB DUP2 ADD SWAP1 PUSH2 0xD2 SWAP2 SWAP1 PUSH2 0x901 JUMP JUMPDEST PUSH2 0x20C JUMP JUMPDEST STOP JUMPDEST PUSH2 0xF3 PUSH1 0x4 DUP1 CALLDATASIZE SUB DUP2 ADD SWAP1 PUSH2 0xEE SWAP2 SWAP1 PUSH2 0x842 JUMP JUMPDEST PUSH2 0x37B JUMP JUMPDEST PUSH1 0x40 MLOAD PUSH2 0x101 SWAP3 SWAP2 SWAP1 PUSH2 0xA30 JUMP JUMPDEST PUSH1 0x40 MLOAD DUP1 SWAP2 SUB SWAP1 RETURN JUMPDEST PUSH2 0x112 PUSH2 0x447 JUMP JUMPDEST STOP JUMPDEST PUSH2 0x12E PUSH1 0x4 DUP1 CALLDATASIZE SUB DUP2 ADD SWAP1 PUSH2 0x129 SWAP2 SWAP1 PUSH2 0x842 JUMP JUMPDEST PUSH2 0x45B JUMP JUMPDEST STOP JUMPDEST PUSH2 0x138 PUSH2 0x5F9 JUMP JUMPDEST PUSH1 0x40 MLOAD PUSH2 0x145 SWAP2 SWAP1 PUSH2 0xA6F JUMP JUMPDEST PUSH1 0x40 MLOAD DUP1 SWAP2 SUB SWAP1 RETURN JUMPDEST PUSH2 0x168 PUSH1 0x4 DUP1 CALLDATASIZE SUB DUP2 ADD SWAP1 PUSH2 0x163 SWAP2 SWAP1 PUSH2 0x842 JUMP JUMPDEST PUSH2 0x622 JUMP JUMPDEST PUSH1 0x40 MLOAD PUSH2 0x175 SWAP2 SWAP1 PUSH2 0x888 JUMP JUMPDEST PUSH1 0x40 MLOAD DUP1 SWAP2 SUB SWAP1 RETURN JUMPDEST PUSH2 0x198 PUSH1 0x4 DUP1 CALLDATASIZE SUB DUP2 ADD SWAP1 PUSH2 0x193 SWAP2 SWAP1 PUSH2 0xA8A JUMP JUMPDEST PUSH2 0x63A JUMP JUMPDEST STOP JUMPDEST PUSH1 0x0 DUP1 PUSH1 0x2 PUSH1 0x0 DUP5 DUP2 MSTORE PUSH1 0x20 ADD SWAP1 DUP2 MSTORE PUSH1 0x20 ADD PUSH1 0x0 KECCAK256 SLOAD SUB PUSH2 0x1F1 JUMPI PUSH1 0x40 MLOAD PUSH32 0x8C379A000000000000000000000000000000000000000000000000000000000 DUP2 MSTORE PUSH1 0x4 ADD PUSH2 0x1E8 SWAP1 PUSH2 0xB29 JUMP JUMPDEST PUSH1 0x40 MLOAD DUP1 SWAP2 SUB SWAP1 REVERT JUMPDEST PUSH1 0x2 PUSH1 0x0 DUP4 DUP2 MSTORE PUSH1 0x20 ADD SWAP1 DUP2 MSTORE PUSH1 0x20 ADD PUSH1 0x0 KECCAK256 SLOAD SWAP1 POP SWAP2 SWAP1 POP JUMP JUMPDEST PUSH2 0x214 PUSH2 0x6BD JUMP JUMPDEST PUSH1 0x0 PUSH20 0xFFFFFFFFFFFFFFFFFFFFFFFFFFFFFFFFFFFFFFFF AND DUP2 PUSH20 0xFFFFFFFFFFFFFFFFFFFFFFFFFFFFFFFFFFFFFFFF AND SUB PUSH2 0x283 JUMPI PUSH1 0x40 MLOAD PUSH32 0x8C379A000000000000000000000000000000000000000000000000000000000 DUP2 MSTORE PUSH1 0x4 ADD PUSH2 0x27A SWAP1 PUSH2 0xB95 JUMP JUMPDEST PUSH1 0x40 MLOAD DUP1 SWAP2 SUB SWAP1 REVERT JUMPDEST PUSH1 0x0 DUP3 GT DUP1 ISZERO PUSH2 0x293 JUMPI POP PUSH1 0x5 DUP3 LT JUMPDEST PUSH2 0x2D2 JUMPI PUSH1 0x40 MLOAD PUSH32 0x8C379A000000000000000000000000000000000000000000000000000000000 DUP2 MSTORE PUSH1 0x4 ADD PUSH2 0x2C9 SWAP1 PUSH2 0xC01 JUMP JUMPDEST PUSH1 0x40 MLOAD DUP1 SWAP2 SUB SWAP1 REVERT JUMPDEST DUP1 PUSH1 0x1 PUSH1 0x0 DUP5 DUP2 MSTORE PUSH1 0x20 ADD SWAP1 DUP2 MSTORE PUSH1 0x20 ADD PUSH1 0x0 KECCAK256 PUSH1 0x0 ADD PUSH1 0x0 PUSH2 0x100 EXP DUP2 SLOAD DUP2 PUSH20 0xFFFFFFFFFFFFFFFFFFFFFFFFFFFFFFFFFFFFFFFF MUL NOT AND SWAP1 DUP4 PUSH20 0xFFFFFFFFFFFFFFFFFFFFFFFFFFFFFFFFFFFFFFFF AND MUL OR SWAP1 SSTORE POP PUSH32 0x776D4E4061BC9D2460FC798429ABCB89B43F7C5D6C2B36B34951E38AF127BBC2 DUP3 DUP3 PUSH1 0x1 PUSH1 0x0 DUP7 DUP2 MSTORE PUSH1 0x20 ADD SWAP1 DUP2 MSTORE PUSH1 0x20 ADD PUSH1 0x0 KECCAK256 PUSH1 0x1 ADD PUSH1 0x40 MLOAD PUSH2 0x36F SWAP4 SWAP3 SWAP2 SWAP1 PUSH2 0xD29 JUMP JUMPDEST PUSH1 0x40 MLOAD DUP1 SWAP2 SUB SWAP1 LOG1 POP POP JUMP JUMPDEST PUSH1 0x1 PUSH1 0x20 MSTORE DUP1 PUSH1 0x0 MSTORE PUSH1 0x40 PUSH1 0x0 KECCAK256 PUSH1 0x0 SWAP2 POP SWAP1 POP DUP1 PUSH1 0x0 ADD PUSH1 0x0 SWAP1 SLOAD SWAP1 PUSH2 0x100 EXP SWAP1 DIV PUSH20 0xFFFFFFFFFFFFFFFFFFFFFFFFFFFFFFFFFFFFFFFF AND SWAP1 DUP1 PUSH1 0x1 ADD DUP1 SLOAD PUSH2 0x3C4 SWAP1 PUSH2 0xC5F JUMP JUMPDEST DUP1 PUSH1 0x1F ADD PUSH1 0x20 DUP1 SWAP2 DIV MUL PUSH1 0x20 ADD PUSH1 0x40 MLOAD SWAP1 DUP2 ADD PUSH1 0x40 MSTORE DUP1 SWAP3 SWAP2 SWAP1 DUP2 DUP2 MSTORE PUSH1 0x20 ADD DUP3 DUP1 SLOAD PUSH2 0x3F0 SWAP1 PUSH2 0xC5F JUMP JUMPDEST DUP1 ISZERO PUSH2 0x43D JUMPI DUP1 PUSH1 0x1F LT PUSH2 0x412 JUMPI PUSH2 0x100 DUP1 DUP4 SLOAD DIV MUL DUP4 MSTORE SWAP2 PUSH1 0x20 ADD SWAP2 PUSH2 0x43D JUMP JUMPDEST DUP3 ADD SWAP2 SWAP1 PUSH1 0x0 MSTORE PUSH1 0x20 PUSH1 0x0 KECCAK256 SWAP1 JUMPDEST DUP2 SLOAD DUP2 MSTORE SWAP1 PUSH1 0x1 ADD SWAP1 PUSH1 0x20 ADD DUP1 DUP4 GT PUSH2 0x420 JUMPI DUP3 SWAP1 SUB PUSH1 0x1F AND DUP3 ADD SWAP2 JUMPDEST POP POP POP POP POP SWAP1 POP DUP3 JUMP JUMPDEST PUSH2 0x44F PUSH2 0x6BD JUMP JUMPDEST PUSH2 0x459 PUSH1 0x0 PUSH2 0x73B JUMP JUMPDEST JUMP JUMPDEST PUSH1 0x0 PUSH1 0x1 PUSH1 0x0 DUP4 DUP2 MSTORE PUSH1 0x20 ADD SWAP1 DUP2 MSTORE PUSH1 0x20 ADD PUSH1 0x0 KECCAK256 SWAP1 POP PUSH1 0x0 PUSH20 0xFFFFFFFFFFFFFFFFFFFFFFFFFFFFFFFFFFFFFFFF AND DUP2 PUSH1 0x0 ADD PUSH1 0x0 SWAP1 SLOAD SWAP1 PUSH2 0x100 EXP SWAP1 DIV PUSH20 0xFFFFFFFFFFFFFFFFFFFFFFFFFFFFFFFFFFFFFFFF AND PUSH20 0xFFFFFFFFFFFFFFFFFFFFFFFFFFFFFFFFFFFFFFFF AND SUB PUSH2 0x505 JUMPI PUSH1 0x40 MLOAD PUSH32 0x8C379A000000000000000000000000000000000000000000000000000000000 DUP2 MSTORE PUSH1 0x4 ADD PUSH2 0x4FC SWAP1 PUSH2 0xDB3 JUMP JUMPDEST PUSH1 0x40 MLOAD DUP1 SWAP2 SUB SWAP1 REVERT JUMPDEST PUSH1 0x0 DUP2 PUSH1 0x0 ADD PUSH1 0x0 SWAP1 SLOAD SWAP1 PUSH2 0x100 EXP SWAP1 DIV PUSH20 0xFFFFFFFFFFFFFFFFFFFFFFFFFFFFFFFFFFFFFFFF AND PUSH20 0xFFFFFFFFFFFFFFFFFFFFFFFFFFFFFFFFFFFFFFFF AND PUSH4 0xFEAF968C PUSH1 0x40 MLOAD DUP2 PUSH4 0xFFFFFFFF AND PUSH1 0xE0 SHL DUP2 MSTORE PUSH1 0x4 ADD PUSH1 0xA0 PUSH1 0x40 MLOAD DUP1 DUP4 SUB DUP2 DUP7 GAS STATICCALL ISZERO DUP1 ISZERO PUSH2 0x576 JUMPI RETURNDATASIZE PUSH1 0x0 DUP1 RETURNDATACOPY RETURNDATASIZE PUSH1 0x0 REVERT JUMPDEST POP POP POP POP PUSH1 0x40 MLOAD RETURNDATASIZE PUSH1 0x1F NOT PUSH1 0x1F DUP3 ADD AND DUP3 ADD DUP1 PUSH1 0x40 MSTORE POP DUP2 ADD SWAP1 PUSH2 0x59A SWAP2 SWAP1 PUSH2 0xE56 JUMP JUMPDEST POP POP POP SWAP2 POP POP DUP1 PUSH1 0x2 PUSH1 0x0 DUP6 DUP2 MSTORE PUSH1 0x20 ADD SWAP1 DUP2 MSTORE PUSH1 0x20 ADD PUSH1 0x0 KECCAK256 DUP2 SWAP1 SSTORE POP PUSH32 0x258BEC2DD17C2C58A631F67D75E4A7703BA5C551BA9428E15FD9B7814972A7A9 DUP3 PUSH1 0x1 ADD DUP3 PUSH1 0x40 MLOAD PUSH2 0x5EC SWAP3 SWAP2 SWAP1 PUSH2 0xED1 JUMP JUMPDEST PUSH1 0x40 MLOAD DUP1 SWAP2 SUB SWAP1 LOG1 POP POP POP JUMP JUMPDEST PUSH1 0x0 DUP1 PUSH1 0x0 SWAP1 SLOAD SWAP1 PUSH2 0x100 EXP SWAP1 DIV PUSH20 0xFFFFFFFFFFFFFFFFFFFFFFFFFFFFFFFFFFFFFFFF AND SWAP1 POP SWAP1 JUMP JUMPDEST PUSH1 0x2 PUSH1 0x20 MSTORE DUP1 PUSH1 0x0 MSTORE PUSH1 0x40 PUSH1 0x0 KECCAK256 PUSH1 0x0 SWAP2 POP SWAP1 POP SLOAD DUP2 JUMP JUMPDEST PUSH2 0x642 PUSH2 0x6BD JUMP JUMPDEST PUSH1 0x0 PUSH20 0xFFFFFFFFFFFFFFFFFFFFFFFFFFFFFFFFFFFFFFFF AND DUP2 PUSH20 0xFFFFFFFFFFFFFFFFFFFFFFFFFFFFFFFFFFFFFFFF AND SUB PUSH2 0x6B1 JUMPI PUSH1 0x40 MLOAD PUSH32 0x8C379A000000000000000000000000000000000000000000000000000000000 DUP2 MSTORE PUSH1 0x4 ADD PUSH2 0x6A8 SWAP1 PUSH2 0xF73 JUMP JUMPDEST PUSH1 0x40 MLOAD DUP1 SWAP2 SUB SWAP1 REVERT JUMPDEST PUSH2 0x6BA DUP2 PUSH2 0x73B JUMP JUMPDEST POP JUMP JUMPDEST PUSH2 0x6C5 PUSH2 0x7FF JUMP JUMPDEST PUSH20 0xFFFFFFFFFFFFFFFFFFFFFFFFFFFFFFFFFFFFFFFF AND PUSH2 0x6E3 PUSH2 0x5F9 JUMP JUMPDEST PUSH20 0xFFFFFFFFFFFFFFFFFFFFFFFFFFFFFFFFFFFFFFFF AND EQ PUSH2 0x739 JUMPI PUSH1 0x40 MLOAD PUSH32 0x8C379A000000000000000000000000000000000000000000000000000000000 DUP2 MSTORE PUSH1 0x4 ADD PUSH2 0x730 SWAP1 PUSH2 0xFDF JUMP JUMPDEST PUSH1 0x40 MLOAD DUP1 SWAP2 SUB SWAP1 REVERT JUMPDEST JUMP JUMPDEST PUSH1 0x0 DUP1 PUSH1 0x0 SWAP1 SLOAD SWAP1 PUSH2 0x100 EXP SWAP1 DIV PUSH20 0xFFFFFFFFFFFFFFFFFFFFFFFFFFFFFFFFFFFFFFFF AND SWAP1 POP DUP2 PUSH1 0x0 DUP1 PUSH2 0x100 EXP DUP2 SLOAD DUP2 PUSH20 0xFFFFFFFFFFFFFFFFFFFFFFFFFFFFFFFFFFFFFFFF MUL NOT AND SWAP1 DUP4 PUSH20 0xFFFFFFFFFFFFFFFFFFFFFFFFFFFFFFFFFFFFFFFF AND MUL OR SWAP1 SSTORE POP DUP2 PUSH20 0xFFFFFFFFFFFFFFFFFFFFFFFFFFFFFFFFFFFFFFFF AND DUP2 PUSH20 0xFFFFFFFFFFFFFFFFFFFFFFFFFFFFFFFFFFFFFFFF AND PUSH32 0x8BE0079C531659141344CD1FD0A4F28419497F9722A3DAAFE3B4186F6B6457E0 PUSH1 0x40 MLOAD PUSH1 0x40 MLOAD DUP1 SWAP2 SUB SWAP1 LOG3 POP POP JUMP JUMPDEST PUSH1 0x0 CALLER SWAP1 POP SWAP1 JUMP JUMPDEST PUSH1 0x0 DUP1 REVERT JUMPDEST PUSH1 0x0 DUP2 SWAP1 POP SWAP2 SWAP1 POP JUMP JUMPDEST PUSH2 0x81F DUP2 PUSH2 0x80C JUMP JUMPDEST DUP2 EQ PUSH2 0x82A JUMPI PUSH1 0x0 DUP1 REVERT JUMPDEST POP JUMP JUMPDEST PUSH1 0x0 DUP2 CALLDATALOAD SWAP1 POP PUSH2 0x83C DUP2 PUSH2 0x816 JUMP JUMPDEST SWAP3 SWAP2 POP POP JUMP JUMPDEST PUSH1 0x0 PUSH1 0x20 DUP3 DUP5 SUB SLT ISZERO PUSH2 0x858 JUMPI PUSH2 0x857 PUSH2 0x807 JUMP JUMPDEST JUMPDEST PUSH1 0x0 PUSH2 0x866 DUP5 DUP3 DUP6 ADD PUSH2 0x82D JUMP JUMPDEST SWAP2 POP POP SWAP3 SWAP2 POP POP JUMP JUMPDEST PUSH1 0x0 DUP2 SWAP1 POP SWAP2 SWAP1 POP JUMP JUMPDEST PUSH2 0x882 DUP2 PUSH2 0x86F JUMP JUMPDEST DUP3 MSTORE POP POP JUMP JUMPDEST PUSH1 0x0 PUSH1 0x20 DUP3 ADD SWAP1 POP PUSH2 0x89D PUSH1 0x0 DUP4 ADD DUP5 PUSH2 0x879 JUMP JUMPDEST SWAP3 SWAP2 POP POP JUMP JUMPDEST PUSH1 0x0 PUSH20 0xFFFFFFFFFFFFFFFFFFFFFFFFFFFFFFFFFFFFFFFF DUP3 AND SWAP1 POP SWAP2 SWAP1 POP JUMP JUMPDEST PUSH1 0x0 PUSH2 0x8CE DUP3 PUSH2 0x8A3 JUMP JUMPDEST SWAP1 POP SWAP2 SWAP1 POP JUMP JUMPDEST PUSH2 0x8DE DUP2 PUSH2 0x8C3 JUMP JUMPDEST DUP2 EQ PUSH2 0x8E9 JUMPI PUSH1 0x0 DUP1 REVERT JUMPDEST POP JUMP JUMPDEST PUSH1 0x0 DUP2 CALLDATALOAD SWAP1 POP PUSH2 0x8FB DUP2 PUSH2 0x8D5 JUMP JUMPDEST SWAP3 SWAP2 POP POP JUMP JUMPDEST PUSH1 0x0 DUP1 PUSH1 0x40 DUP4 DUP6 SUB SLT ISZERO PUSH2 0x918 JUMPI PUSH2 0x917 PUSH2 0x807 JUMP JUMPDEST JUMPDEST PUSH1 0x0 PUSH2 0x926 DUP6 DUP3 DUP7 ADD PUSH2 0x82D JUMP JUMPDEST SWAP3 POP POP PUSH1 0x20 PUSH2 0x937 DUP6 DUP3 DUP7 ADD PUSH2 0x8EC JUMP JUMPDEST SWAP2 POP POP SWAP3 POP SWAP3 SWAP1 POP JUMP JUMPDEST PUSH1 0x0 DUP2 SWAP1 POP SWAP2 SWAP1 POP JUMP JUMPDEST PUSH1 0x0 PUSH2 0x966 PUSH2 0x961 PUSH2 0x95C DUP5 PUSH2 0x8A3 JUMP JUMPDEST PUSH2 0x941 JUMP JUMPDEST PUSH2 0x8A3 JUMP JUMPDEST SWAP1 POP SWAP2 SWAP1 POP JUMP JUMPDEST PUSH1 0x0 PUSH2 0x978 DUP3 PUSH2 0x94B JUMP JUMPDEST SWAP1 POP SWAP2 SWAP1 POP JUMP JUMPDEST PUSH1 0x0 PUSH2 0x98A DUP3 PUSH2 0x96D JUMP JUMPDEST SWAP1 POP SWAP2 SWAP1 POP JUMP JUMPDEST PUSH2 0x99A DUP2 PUSH2 0x97F JUMP JUMPDEST DUP3 MSTORE POP POP JUMP JUMPDEST PUSH1 0x0 DUP2 MLOAD SWAP1 POP SWAP2 SWAP1 POP JUMP JUMPDEST PUSH1 0x0 DUP3 DUP3 MSTORE PUSH1 0x20 DUP3 ADD SWAP1 POP SWAP3 SWAP2 POP POP JUMP JUMPDEST PUSH1 0x0 JUMPDEST DUP4 DUP2 LT ISZERO PUSH2 0x9DA JUMPI DUP1 DUP3 ADD MLOAD DUP2 DUP5 ADD MSTORE PUSH1 0x20 DUP2 ADD SWAP1 POP PUSH2 0x9BF JUMP JUMPDEST PUSH1 0x0 DUP5 DUP5 ADD MSTORE POP POP POP POP JUMP JUMPDEST PUSH1 0x0 PUSH1 0x1F NOT PUSH1 0x1F DUP4 ADD AND SWAP1 POP SWAP2 SWAP1 POP JUMP JUMPDEST PUSH1 0x0 PUSH2 0xA02 DUP3 PUSH2 0x9A0 JUMP JUMPDEST PUSH2 0xA0C DUP2 DUP6 PUSH2 0x9AB JUMP JUMPDEST SWAP4 POP PUSH2 0xA1C DUP2 DUP6 PUSH1 0x20 DUP7 ADD PUSH2 0x9BC JUMP JUMPDEST PUSH2 0xA25 DUP2 PUSH2 0x9E6 JUMP JUMPDEST DUP5 ADD SWAP2 POP POP SWAP3 SWAP2 POP POP JUMP JUMPDEST PUSH1 0x0 PUSH1 0x40 DUP3 ADD SWAP1 POP PUSH2 0xA45 PUSH1 0x0 DUP4 ADD DUP6 PUSH2 0x991 JUMP JUMPDEST DUP2 DUP2 SUB PUSH1 0x20 DUP4 ADD MSTORE PUSH2 0xA57 DUP2 DUP5 PUSH2 0x9F7 JUMP JUMPDEST SWAP1 POP SWAP4 SWAP3 POP POP POP JUMP JUMPDEST PUSH2 0xA69 DUP2 PUSH2 0x8C3 JUMP JUMPDEST DUP3 MSTORE POP POP JUMP JUMPDEST PUSH1 0x0 PUSH1 0x20 DUP3 ADD SWAP1 POP PUSH2 0xA84 PUSH1 0x0 DUP4 ADD DUP5 PUSH2 0xA60 JUMP JUMPDEST SWAP3 SWAP2 POP POP JUMP JUMPDEST PUSH1 0x0 PUSH1 0x20 DUP3 DUP5 SUB SLT ISZERO PUSH2 0xAA0 JUMPI PUSH2 0xA9F PUSH2 0x807 JUMP JUMPDEST JUMPDEST PUSH1 0x0 PUSH2 0xAAE DUP5 DUP3 DUP6 ADD PUSH2 0x8EC JUMP JUMPDEST SWAP2 POP POP SWAP3 SWAP2 POP POP JUMP JUMPDEST PUSH32 0x4C617465737420707269636520636F6E76657273696F6E20686173206E6F7420 PUSH1 0x0 DUP3 ADD MSTORE PUSH32 0x6265656E207265747269657665642E0000000000000000000000000000000000 PUSH1 0x20 DUP3 ADD MSTORE POP JUMP JUMPDEST PUSH1 0x0 PUSH2 0xB13 PUSH1 0x2F DUP4 PUSH2 0x9AB JUMP JUMPDEST SWAP2 POP PUSH2 0xB1E DUP3 PUSH2 0xAB7 JUMP JUMPDEST PUSH1 0x40 DUP3 ADD SWAP1 POP SWAP2 SWAP1 POP JUMP JUMPDEST PUSH1 0x0 PUSH1 0x20 DUP3 ADD SWAP1 POP DUP2 DUP2 SUB PUSH1 0x0 DUP4 ADD MSTORE PUSH2 0xB42 DUP2 PUSH2 0xB06 JUMP JUMPDEST SWAP1 POP SWAP2 SWAP1 POP JUMP JUMPDEST PUSH32 0x55706461746564206164647265737320697320756E646566696E65642E000000 PUSH1 0x0 DUP3 ADD MSTORE POP JUMP JUMPDEST PUSH1 0x0 PUSH2 0xB7F PUSH1 0x1D DUP4 PUSH2 0x9AB JUMP JUMPDEST SWAP2 POP PUSH2 0xB8A DUP3 PUSH2 0xB49 JUMP JUMPDEST PUSH1 0x20 DUP3 ADD SWAP1 POP SWAP2 SWAP1 POP JUMP JUMPDEST PUSH1 0x0 PUSH1 0x20 DUP3 ADD SWAP1 POP DUP2 DUP2 SUB PUSH1 0x0 DUP4 ADD MSTORE PUSH2 0xBAE DUP2 PUSH2 0xB72 JUMP JUMPDEST SWAP1 POP SWAP2 SWAP1 POP JUMP JUMPDEST PUSH32 0x696E76616C696420666565642049442E00000000000000000000000000000000 PUSH1 0x0 DUP3 ADD MSTORE POP JUMP JUMPDEST PUSH1 0x0 PUSH2 0xBEB PUSH1 0x10 DUP4 PUSH2 0x9AB JUMP JUMPDEST SWAP2 POP PUSH2 0xBF6 DUP3 PUSH2 0xBB5 JUMP JUMPDEST PUSH1 0x20 DUP3 ADD SWAP1 POP SWAP2 SWAP1 POP JUMP JUMPDEST PUSH1 0x0 PUSH1 0x20 DUP3 ADD SWAP1 POP DUP2 DUP2 SUB PUSH1 0x0 DUP4 ADD MSTORE PUSH2 0xC1A DUP2 PUSH2 0xBDE JUMP JUMPDEST SWAP1 POP SWAP2 SWAP1 POP JUMP JUMPDEST PUSH2 0xC2A DUP2 PUSH2 0x80C JUMP JUMPDEST DUP3 MSTORE POP POP JUMP JUMPDEST PUSH32 0x4E487B7100000000000000000000000000000000000000000000000000000000 PUSH1 0x0 MSTORE PUSH1 0x22 PUSH1 0x4 MSTORE PUSH1 0x24 PUSH1 0x0 REVERT JUMPDEST PUSH1 0x0 PUSH1 0x2 DUP3 DIV SWAP1 POP PUSH1 0x1 DUP3 AND DUP1 PUSH2 0xC77 JUMPI PUSH1 0x7F DUP3 AND SWAP2 POP JUMPDEST PUSH1 0x20 DUP3 LT DUP2 SUB PUSH2 0xC8A JUMPI PUSH2 0xC89 PUSH2 0xC30 JUMP JUMPDEST JUMPDEST POP SWAP2 SWAP1 POP JUMP JUMPDEST PUSH1 0x0 DUP2 SWAP1 POP DUP2 PUSH1 0x0 MSTORE PUSH1 0x20 PUSH1 0x0 KECCAK256 SWAP1 POP SWAP2 SWAP1 POP JUMP JUMPDEST PUSH1 0x0 DUP2 SLOAD PUSH2 0xCB2 DUP2 PUSH2 0xC5F JUMP JUMPDEST PUSH2 0xCBC DUP2 DUP7 PUSH2 0x9AB JUMP JUMPDEST SWAP5 POP PUSH1 0x1 DUP3 AND PUSH1 0x0 DUP2 EQ PUSH2 0xCD7 JUMPI PUSH1 0x1 DUP2 EQ PUSH2 0xCED JUMPI PUSH2 0xD20 JUMP JUMPDEST PUSH1 0xFF NOT DUP4 AND DUP7 MSTORE DUP2 ISZERO ISZERO PUSH1 0x20 MUL DUP7 ADD SWAP4 POP PUSH2 0xD20 JUMP JUMPDEST PUSH2 0xCF6 DUP6 PUSH2 0xC90 JUMP JUMPDEST PUSH1 0x0 JUMPDEST DUP4 DUP2 LT ISZERO PUSH2 0xD18 JUMPI DUP2 SLOAD DUP2 DUP10 ADD MSTORE PUSH1 0x1 DUP3 ADD SWAP2 POP PUSH1 0x20 DUP2 ADD SWAP1 POP PUSH2 0xCF9 JUMP JUMPDEST DUP1 DUP9 ADD SWAP6 POP POP POP JUMPDEST POP POP POP SWAP3 SWAP2 POP POP JUMP JUMPDEST PUSH1 0x0 PUSH1 0x60 DUP3 ADD SWAP1 POP PUSH2 0xD3E PUSH1 0x0 DUP4 ADD DUP7 PUSH2 0xC21 JUMP JUMPDEST PUSH2 0xD4B PUSH1 0x20 DUP4 ADD DUP6 PUSH2 0xA60 JUMP JUMPDEST DUP2 DUP2 SUB PUSH1 0x40 DUP4 ADD MSTORE PUSH2 0xD5D DUP2 DUP5 PUSH2 0xCA5 JUMP JUMPDEST SWAP1 POP SWAP5 SWAP4 POP POP POP POP JUMP JUMPDEST PUSH32 0x436F6E74726163742061646472657373206E6F7420666F756E642E0000000000 PUSH1 0x0 DUP3 ADD MSTORE POP JUMP JUMPDEST PUSH1 0x0 PUSH2 0xD9D PUSH1 0x1B DUP4 PUSH2 0x9AB JUMP JUMPDEST SWAP2 POP PUSH2 0xDA8 DUP3 PUSH2 0xD67 JUMP JUMPDEST PUSH1 0x20 DUP3 ADD SWAP1 POP SWAP2 SWAP1 POP JUMP JUMPDEST PUSH1 0x0 PUSH1 0x20 DUP3 ADD SWAP1 POP DUP2 DUP2 SUB PUSH1 0x0 DUP4 ADD MSTORE PUSH2 0xDCC DUP2 PUSH2 0xD90 JUMP JUMPDEST SWAP1 POP SWAP2 SWAP1 POP JUMP JUMPDEST PUSH1 0x0 PUSH10 0xFFFFFFFFFFFFFFFFFFFF DUP3 AND SWAP1 POP SWAP2 SWAP1 POP JUMP JUMPDEST PUSH2 0xDF2 DUP2 PUSH2 0xDD3 JUMP JUMPDEST DUP2 EQ PUSH2 0xDFD JUMPI PUSH1 0x0 DUP1 REVERT JUMPDEST POP JUMP JUMPDEST PUSH1 0x0 DUP2 MLOAD SWAP1 POP PUSH2 0xE0F DUP2 PUSH2 0xDE9 JUMP JUMPDEST SWAP3 SWAP2 POP POP JUMP JUMPDEST PUSH2 0xE1E DUP2 PUSH2 0x86F JUMP JUMPDEST DUP2 EQ PUSH2 0xE29 JUMPI PUSH1 0x0 DUP1 REVERT JUMPDEST POP JUMP JUMPDEST PUSH1 0x0 DUP2 MLOAD SWAP1 POP PUSH2 0xE3B DUP2 PUSH2 0xE15 JUMP JUMPDEST SWAP3 SWAP2 POP POP JUMP JUMPDEST PUSH1 0x0 DUP2 MLOAD SWAP1 POP PUSH2 0xE50 DUP2 PUSH2 0x816 JUMP JUMPDEST SWAP3 SWAP2 POP POP JUMP JUMPDEST PUSH1 0x0 DUP1 PUSH1 0x0 DUP1 PUSH1 0x0 PUSH1 0xA0 DUP7 DUP9 SUB SLT ISZERO PUSH2 0xE72 JUMPI PUSH2 0xE71 PUSH2 0x807 JUMP JUMPDEST JUMPDEST PUSH1 0x0 PUSH2 0xE80 DUP9 DUP3 DUP10 ADD PUSH2 0xE00 JUMP JUMPDEST SWAP6 POP POP PUSH1 0x20 PUSH2 0xE91 DUP9 DUP3 DUP10 ADD PUSH2 0xE2C JUMP JUMPDEST SWAP5 POP POP PUSH1 0x40 PUSH2 0xEA2 DUP9 DUP3 DUP10 ADD PUSH2 0xE41 JUMP JUMPDEST SWAP4 POP POP PUSH1 0x60 PUSH2 0xEB3 DUP9 DUP3 DUP10 ADD PUSH2 0xE41 JUMP JUMPDEST SWAP3 POP POP PUSH1 0x80 PUSH2 0xEC4 DUP9 DUP3 DUP10 ADD PUSH2 0xE00 JUMP JUMPDEST SWAP2 POP POP SWAP3 SWAP6 POP SWAP3 SWAP6 SWAP1 SWAP4 POP JUMP JUMPDEST PUSH1 0x0 PUSH1 0x40 DUP3 ADD SWAP1 POP DUP2 DUP2 SUB PUSH1 0x0 DUP4 ADD MSTORE PUSH2 0xEEB DUP2 DUP6 PUSH2 0xCA5 JUMP JUMPDEST SWAP1 POP PUSH2 0xEFA PUSH1 0x20 DUP4 ADD DUP5 PUSH2 0x879 JUMP JUMPDEST SWAP4 SWAP3 POP POP POP JUMP JUMPDEST PUSH32 0x4F776E61626C653A206E6577206F776E657220697320746865207A65726F2061 PUSH1 0x0 DUP3 ADD MSTORE PUSH32 0x6464726573730000000000000000000000000000000000000000000000000000 PUSH1 0x20 DUP3 ADD MSTORE POP JUMP JUMPDEST PUSH1 0x0 PUSH2 0xF5D PUSH1 0x26 DUP4 PUSH2 0x9AB JUMP JUMPDEST SWAP2 POP PUSH2 0xF68 DUP3 PUSH2 0xF01 JUMP JUMPDEST PUSH1 0x40 DUP3 ADD SWAP1 POP SWAP2 SWAP1 POP JUMP JUMPDEST PUSH1 0x0 PUSH1 0x20 DUP3 ADD SWAP1 POP DUP2 DUP2 SUB PUSH1 0x0 DUP4 ADD MSTORE PUSH2 0xF8C DUP2 PUSH2 0xF50 JUMP JUMPDEST SWAP1 POP SWAP2 SWAP1 POP JUMP JUMPDEST PUSH32 0x4F776E61626C653A2063616C6C6572206973206E6F7420746865206F776E6572 PUSH1 0x0 DUP3 ADD MSTORE POP JUMP JUMPDEST PUSH1 0x0 PUSH2 0xFC9 PUSH1 0x20 DUP4 PUSH2 0x9AB JUMP JUMPDEST SWAP2 POP PUSH2 0xFD4 DUP3 PUSH2 0xF93 JUMP JUMPDEST PUSH1 0x20 DUP3 ADD SWAP1 POP SWAP2 SWAP1 POP JUMP JUMPDEST PUSH1 0x0 PUSH1 0x20 DUP3 ADD SWAP1 POP DUP2 DUP2 SUB PUSH1 0x0 DUP4 ADD MSTORE PUSH2 0xFF8 DUP2 PUSH2 0xFBC JUMP JUMPDEST SWAP1 POP SWAP2 SWAP1 POP JUMP INVALID LOG2 PUSH5 0x6970667358 0x22 SLT KECCAK256 0xDD DUP11 0xAE EXTCODESIZE PUSH30 0x7EDCDB70062628738673446B2CF8C0661208FEDB1DE0924445442464736F PUSH13 0x63430008140033000000000000 "},"methodIdentifiers":{"feeds(uint256)":"4a5479f3","getLastFetchedPrice(uint256)":"0b0eebe4","lastFetchedPrice(uint256)":"c0351f5c","owner()":"8da5cb5b","renounceOwnership()":"715018a6","transferOwnership(address)":"f2fde38b","updateFeedAddress(uint256,address)":"0e168cf3","updatePrice(uint256)":"8d6cc56d"}}}}}